:020000040800F2
:100000000080002079020008191200081B12000865
:1000100000000000000000000000000000000000E0
:10002000000000000000000000000000E9120008CD
:10003000000000000000000091130008D513000824
:10004000C9020008C9020008C9020008C902000864
:10005000C9020008C9020008C9020008C902000854
:10006000C9020008C9020008C9020008C902000844
:10007000C9020008C9020008C90200081D120008D0
:10008000C9020008C9020008C9020008C902000824
:10009000C9020008C9020008C9020008C902000814
:1000A000C9020008C9020008C9020008C902000804
:0C00B000C9020008C9020008C9020008CB
:1000C00010B5064C2378002B07D1054B002B02D02E
:1000D000044800E000BF0123237010BD0C00002085
:1000E000000000008C2A0008044B10B5002B03D040
:1000F0000349044800E000BF10BDC04600000000F6
:10010000100000208C2A0008002243088B4274D380
:1001100003098B425FD3030A8B4244D3030B8B4208
:1001200028D3030C8B420DD3FF22090212BA030C11
:100130008B4202D31212090265D0030B8B4219D3F2
:1001400000E0090AC30B8B4201D3CB03C01A524112
:10015000830B8B4201D38B03C01A5241430B8B425A
:1001600001D34B03C01A5241030B8B4201D30B0343
:10017000C01A5241C30A8B4201D3CB02C01A52416A
:10018000830A8B4201D38B02C01A5241430A8B422D
:1001900001D34B02C01A5241030A8B4201D30B0216
:1001A000C01A5241CDD2C3098B4201D3CB01C01A30
:1001B000524183098B4201D38B01C01A524143093A
:1001C0008B4201D34B01C01A524103098B4201D328
:1001D0000B01C01A5241C3088B4201D3CB00C01A95
:1001E000524183088B4201D38B00C01A524143080D
:1001F0008B4201D34B00C01A5241411A00D2014632
:10020000524110467047FFE701B5002000F006F8A4
:1002100002BDC0460029F7D076E770477047C04658
:1002200070B500260C4D0D4C641BA410A64209D1DC
:10023000002602F02BFC0A4D0A4C641BA410A642B7
:1002400005D170BDB300EB5898470136EEE7B30017
:10025000EB5898470136F2E74C2B00084C2B00086E
:100260004C2B0008502B000803001218934200D1B9
:10027000704719700133F9E70D4885460D480E495E
:100280000E4A002302E0D458C4500433C4188C42F0
:10029000F9D30B4A0B4C002301E013600432A24255
:1002A000FBD300F0C3FFFFF7BBFF00F041FFFEE709
:1002B00000800020000000200C000020542B0008CB
:1002C0000C000020FC190020FEE7000010B5064AD3
:1002D000136810210B431360002000F063FF00F04F
:1002E00043FF002010BDC04600200240034A1168B1
:1002F000034B1B785B1813607047C046241900201D
:1003000000000020014B18687047C04624190020E7
:1003100070B5002811DB8308144DC0339B005C5975
:1003200003221040C000FC3216008640B44389010D
:100330000A40824022435A5170BDC0B20F2303408D
:10034000083B9B0806339B00094A944663445D685A
:1003500003242040C000FF2214008440A5438901EB
:100360001140814029435960E6E7C04600E100E0C2
:1003700000ED00E0002805DB1F2318401E3B8340F2
:10038000014A13607047C04600E100E0F0B5CE4678
:10039000474680B583B0002333E0042600E0002602
:1003A000AE4035003D430234A400574EA551574C92
:1003B0002568D4432E0026404F68FF0301D515431E
:1003C0002E00524D2E606D682E0026404F68BF03F0
:1003D00001D515432E004D4D6E60AD682E002640B0
:1003E0004F68FF0201D515432E00484DAE60ED6801
:1003F0002C404E68B60201D52A431400434AD4600B
:1004000001330A681400DC4079D001249C4022406A
:10041000F6D04D686E1E012E03D9112D01D0122D7C
:1004200012D185685F000326BE40B5432E00CD681B
:10043000BD40354385604568A5434C6826090124C5
:1004400034409C402C434460C7685E000324B440A1
:10045000E443A44627408D68B5403D43C5604C68E1
:10046000022C01D0122C10D1DC080834A400A146C3
:10047000275807251D40AD000F24AC40A7430C6949
:10048000AC4025003D434C46255005686446254058
:1004900003244F683C40B4402C4304604C68E400A3
:1004A000AED51B4DAE6901242643AE61AD692C402B
:1004B0000194019C9C08A51CAD00134EAF59032666
:1004C0001E40B5000F26AE40B7439026F605B04259
:1004D00000D164E70F4EB0420BD00F4EB0420AD0AD
:1004E0000E4EB04209D00E4EB04200D155E705265F
:1004F00056E7012654E7022652E7032650E703B0E9
:100500000CBC90469946F0BD00000140000401403B
:10051000001002400004004800080048000C004899
:1005200000100048002A01D1816270478161FCE718
:10053000426913000B401B049143194381617047CA
:1005400070B582B0041E00D185E20368DB072BD5AD
:10055000B34B5A680C231340042B1DD0B04B5A6880
:100560000C231340082B0ED06368012B41D0002BC5
:1005700056D1AB4B1A68AB490A401A601A68AA49AF
:100580000A401A603BE0A64B5B68C022520213404F
:10059000802252029342E7D1A14B1B689B0303D5F3
:1005A0006368002B00D159E223689B0778D59C4BE8
:1005B0005B680C221A4262D0994B5A680C23134094
:1005C000082B53D0E368002B00D18BE0944A1368CA
:1005D00001210B431360FFF795FE0500904B1B684C
:1005E0009B0776D4FFF78EFE401B0228F6D9032026
:1005F00032E28B4A116880235B020B43136063680D
:10060000002B25D0FFF77EFE0500854B1B689B0362
:10061000CAD4FFF777FE401B6428F6D903201BE2FB
:10062000052B09D07E4B1A687E490A401A601A6869
:100630007D490A401A60E2E7794B19688022D202AC
:100640000A431A601968802252020A431A60D6E7E8
:10065000FFF758FE0500724B1B689B03A4D5FFF7FC
:1006600051FE401B6428F6D90320F5E16C4B5B6812
:10067000C02252021340802212029342A2D1684B40
:100680001B689B0704D5E368012B01D00120E3E13F
:1006900063490B68F82293432269D20013430B602D
:1006A00023681B0744D5E369002B2ED05C4A536AAC
:1006B00001210B435362FFF725FE0500584B5B6A8F
:1006C0009B0735D4FFF71EFE401B0228F6D90320F6
:1006D000C2E153490B68F82293432269D2001343C5
:1006E0000B60DDE74E4A136801218B431360FFF76F
:1006F00009FE05004A4B1B689B07D1D5FFF702FE98
:10070000401B0228F6D90320A6E1454A536A01217D
:100710008B435362FFF7F6FD0500414B5B6A9B0775
:1007200006D5FFF7EFFD401B0228F6D9032093E121
:1007300023685B0700D47FE0394BDB69DB001DD405
:10074000374AD169802040050143D161D369034014
:100750000193019B0125354B1B68DB0510D5A36870
:10076000012B21D0002B36D12D4B1A6A01218A434F
:100770001A621A6A03318A431A621AE00025EAE70C
:100780002A4A116880235B000B431360FFF7BAFD10
:100790000600264B1B68DB05E1D4FFF7B3FD801B89
:1007A0006428F6D9032057E11D4A136A01210B433F
:1007B0001362A368002B24D0FFF7A4FD0600184B9A
:1007C0001B6A9B0736D4FFF79DFD801B184B984290
:1007D000F5D9032040E1052B09D0114B1A6A0121FC
:1007E0008A431A621A6A03318A431A62E1E70C4BA0
:1007F0001A6A04210A431A621A6A03390A431A62FE
:10080000D7E7FFF77FFD0600054B1B6A9B0711D555
:10081000FFF778FD801B064B9842F5D903201BE1BA
:1008200000100240FFFFFEFFFFFFFBFF00700040D3
:1008300088130000012D3AD02368DB0610D56369C8
:10084000012B3AD0053358D1884A536B04218B438E
:100850005363536BF4318B43A169C9000B4353635A
:1008600023689B0600D482E0804B5A680C23134017
:100870000C2B60D07D4B5A680C231340082B53D0AF
:10088000236A002B60D0794A516B80235B020B43B3
:100890005363FFF737FD0500744B5B6BDB0366D4D6
:1008A000FFF730FD401B0228F6D90320D4E06F4A41
:1008B000D3696F490B40D361BEE76C4B5A6B04217F
:1008C0000A435A635A6B03390A435A63FFF71AFD06
:1008D0000500664B5B6B9B0706D4FFF713FD401BBF
:1008E0000228F6D90320B7E060494B6BF822934306
:1008F000A269D20013434B63B2E75C4B5A6B0421ED
:100900000A435A635A6B03398A435A63FFF7FAFC66
:100910000500564B5B6B9B07A2D5FFF7F3FC401B12
:100920000228F6D9032097E0504B5B68C0225202A0
:1009300013409342A4D14D4B5B6BDB0317D5236A65
:10094000012B14D0012087E0484A536B49490B40E2
:100950005363FFF7D7FC0500444B5B6BDB0306D505
:10096000FFF7D0FC401B0228F6D9032074E0636A2D
:10097000002B00D174E03D4A51680C220A40082A3D
:100980004DD0022B12D0394A13683B490B401360FB
:10099000FFF7B8FC0400354B1B689B013DD5FFF702
:1009A000B1FC001B0228F6D9032055E02F4A13683A
:1009B00031490B401360FFF7A5FC05002B4B1B686A
:1009C0009B0106D5FFF79EFC401B0228F6D90320A9
:1009D00042E0264BDA6A0F218A43216B0A43DA622E
:1009E0005A6826490A40E16AA06A01430A435A60EC
:1009F0001968802252040A431A60FFF783FC04003E
:100A00001A4B1B689B0106D4FFF77CFC001B0228D5
:100A1000F6D9032020E000201EE000201CE0012B7E
:100A200020D0124B5A68D96AC0235B021340A06AD7
:100A3000834201D001200FE00F230B40216B8B423A
:100A400001D0012008E0F0239B031A40E36A9A4298
:100A50000AD0012000E0012002B070BD0120FBE7B8
:100A60000020F9E70120F7E70020F5E70010024039
:100A7000FFFFFFEFFFFFFEFFFFFFFFFEFF7FC2FF55
:100A800030B589B004AA1F4B180032C832C2110019
:100A900002680A606A46103313CB13C21B681360E6
:100AA000194B5A680C231340082B04D00C2B26D06A
:100AB000164809B030BD910C0F23194004A8445CBE
:100AC0001149C96A0B406946C95CC0235B021A40E0
:100AD00080235B029A4208D0C0235B029A4209D06D
:100AE0000A48FFF711FB6043E3E70848FFF70CFBF8
:100AF0006043DEE70648FFF707FB6043D9E7044899
:100B0000D7E7C046A42A00080010024000127A006D
:100B1000006CDC0270B504000D00002800D189E0F3
:100B2000464B1A68012313408B420BD243490B6892
:100B3000012293432B430B600B681A40AA4201D059
:100B4000012078E023689A070ED55B0705D53C4A5B
:100B50005168E023DB000B435360394A5368F021AE
:100B60008B43A1680B4353602368DB0735D563686B
:100B7000012B09D0022B24D0032B28D0304A126835
:100B8000920705D4012056E02D4A1268920353D5EE
:100B90002B494A680320824313434B60FFF7B2FBA3
:100BA0000600274B5B680C221A4063689B009A4240
:100BB00013D0FFF7A7FB801B224B9842F1D90320EB
:100BC00039E01F4A12689201E2D4012033E01C4A46
:100BD000526BD203DCD401202DE0184B1A6801239C
:100BE0001340AB420BD915490B68012293432B43A9
:100BF0000B600B681A40AA4201D001201BE0236859
:100C00005B0706D50E4A53680F490B40E1680B435A
:100C10005360FFF735FF0A4B5A6812090F23134040
:100C20000A4AD35CD8400A4B1860002000F0BAFA98
:100C3000002000E0012070BD0120FCE70020024000
:100C40000010024088130000FFF8FFFFF42A00089C
:100C500004000020014B18687047C04604000020C3
:100C600010B5FFF7F7FF044B5A68120A0723134029
:100C7000024AD35CD84010BD00100240042B00088B
:100C800010B5072303600A4B5C68032222404260D0
:100C90005C68F022224082605B68E022D200134050
:100CA000C360044B1A68012313400B6010BDC0469B
:100CB0000010024000200240704700003D23C35C4A
:100CC000012B01D0012070473C330222C25402683C
:100CD000D36801210B43D3600368104A93420FD0BD
:100CE0008022D20593420BD00D4A934208D00D4A80
:100CF000934205D01A6801210A431A600020E2E7F6
:100D0000996807220A40062A05D01A6801210A4379
:100D10001A600020D7E70020D5E7C046002C01402C
:100D20000004004000400140704770477047704722
:100D300010B5040003681A6992070FD5DA689207A4
:100D40000CD5032252421A610123037703689B6981
:100D50009B0763D0FFF7E9FF0023237723681A6915
:100D6000520712D5DA6852070FD5052252421A618E
:100D70000223237723689A69C0239B001A4253D029
:100D80002000FFF7D2FF0023237723681A69120798
:100D900010D5DA6812070DD5092252421A610423D0
:100DA00023772368DB699B0745D02000FFF7BDFF51
:100DB0000023237723681A69D20612D5DA68D2068F
:100DC0000FD5112252421A61082323772368DA696A
:100DD000C0239B001A4235D02000FFF7A6FF002356
:100DE000237723681A69D20702D5DA68D20730D48C
:100DF00023681A69120602D5DA68120630D423680D
:100E00001A69520602D5DA68520630D423681A6984
:100E1000920602D5DA68920630D410BDFFF784FF3F
:100E20002000FFF783FF97E72000FFF77DFF2000FA
:100E3000FFF77CFFA7E72000FFF776FF2000FFF712
:100E400075FFB5E72000FFF76FFF2000FFF76EFF8B
:100E5000C5E7022252421A61200000F000F9C7E7FC
:100E6000812252421A61200000F0C5F8C7E74122F2
:100E700052421A612000FFF75AFFC7E7212252426F
:100E80001A61200000F0B6F8C7E700000368214AA5
:100E9000904206D08022D205904202D01E4A904253
:100EA00003D1702293434A6813431A4A904212D0E6
:100EB0008022D20590420ED0174A90420BD0174A9A
:100EC000904208D0164A904205D0164A904202D06D
:100ED000154A904203D1154A1340CA681343802231
:100EE00093434A69134303608B68C3620B68836250
:100EF000084B984208D00A4B984205D0094B9842BB
:100F000002D0094B984201D10B690363012343616D
:100F10007047C046002C0140000400400020004003
:100F2000004001400044014000480140FFFCFFFF39
:100F300070B5041E26D03D23C35C002B1CD03D257C
:100F400002236355211D2068FFF7A0FF01234622DD
:100F5000A354083AA3540132A3540132A3540132DA
:100F6000A3540132A3540132A3540132A3540132D9
:100F7000A3546355002070BD3C330022C254FFF7D8
:100F80009BFEDCE70120F6E730B53C23C35C012B78
:100F900028D03C230122C25401330132C2540368D9
:100FA0005A689C687025AA430D682A435A600368F2
:100FB0000D4A934209D08022D205934205D00B4AB4
:100FC000934202D00A4A934204D1802294434A6851
:100FD00014439C603D230122C254013B0022C254B1
:100FE000002030BD0220FCE7002C0140000400403E
:100FF000004001407047704710B586B014220021B0
:1010000001A8FFF731F90F4A51698020800201439E
:101010005161536903400093009B9024E405012231
:1010200020212000FFF77EFA202301931F3B02932B
:10103000002303930333049301A92000FFF7A6F9CB
:1010400006B010BD0010024010B590202021C00550
:10105000FFF76EFAFA20800001F0D8FCF5E710B532
:1010600002688023DB059A4200D010BDFFF73EF9ED
:10107000FBE772B6FEE7000000B583B0082200214E
:101080006846FFF7F1F80E480E4B036000234360FB
:1010900083600D4AC2608361FFF74AFF00280AD1CE
:1010A00000230093019369460548FFF76DFF002870
:1010B00003D103B000BDFFF7DCFFFFF7DAFFC04646
:1010C0002C19002000140040FFFF000000B593B071
:1010D0003022002106A8FFF7C7F81022002101A83E
:1010E000FFF7C2F802230593012208920F320992FA
:1010F0000E9380231B020F9380235B03109305A89C
:10110000FFF71EFA00280ED107230193053B029337
:10111000002303930493012101A8FFF7FBFC00289F
:1011200003D113B000BDFFF7A4FFFFF7A2FF00003B
:1011300010B5FFF7CBF8FFF7C9FFFFF75DFFFFF72B
:101140009BFF01F0A3FB054A0021054801F0E2FBEB
:10115000044B186001F0BAFBFEE7C046C42A000841
:10116000491000082819002000B583B00C4B99697C
:1011700001221143996199690A400092009ADA6943
:10118000802149050A43DA61DB690B400193019B29
:101190000220002203214042FFF7BAF803B000BD4D
:1011A0000010024000B587B0010000220F20FFF7B9
:1011B000AFF80F20FFF7DEF8134AD1690123194376
:1011C000D161D26913400093009B01A902A8FFF7E7
:1011D00057FDFFF745FD0D49FEF796FF431E0C48EE
:1011E0008022D20502600B4AC26043600023036183
:1011F0008360FFF79DFE002802D0012007B000BDEC
:101200000348FFF75BFDF9E70010024040420F0082
:1012100074190020E7030000FEE7FEE710B502485E
:10122000FFF786FD10BDC04674190020704700000E
:1012300082B000230193064B1B68013301D072B6C4
:10124000FEE772B6019B002BFCD002B07047C0468F
:101250000800002000000000000000000000000066
:101260000B4A13681868203080F30988022080F345
:101270001488BFF36F8F3FBCAE4608BC04BC62B697
:101280001847C046C046C046C046C046C046C046D5
:101290002800002010B5084C00232360074A136083
:1012A000074B1868FA218900FEF72EFF0138054B1D
:1012B00018600723236010BD10E000E018E000E094
:1012C0000400002014E000E010B5031F8024640433
:1012D0001C60043B1960043B02491960143B1A600E
:1012E000403810BD311200087047000010B50C4B9B
:1012F0001968FF2212040A431A601968FF221206B5
:101300000A431A60FFF7C6FF064B00221A60FFF778
:10131000A7FF00F09FFEFFF78BFF002010BDC04627
:1013200020ED00E008000020044B802252051A60E6
:10133000BFF34F8FBFF36F8F7047C04604ED00E0DF
:1013400072B6044A136801331360BFF34F8FBFF3C3
:101350006F8F704708000020064B1B68002B01D1DF
:1013600072B6FEE7013B034A1360002B00D162B660
:101370007047C04608000020EFF3108072B6704737
:1013800080F310887047000000000000000000009B
:10139000EFF309800E4B1A6820381060F0C0444605
:1013A0004D4656465F46F0C008B572B600F052FE94
:1013B00062B60CBC116808681030F0C8A046A94697
:1013C000B246BB4680F309882038F0C81847C046AB
:1013D0002800002010B5FFF7CFFF040000F024FD27
:1013E000002803D0034B802252051A602000FFF72B
:1013F000C7FF10BD04ED00E0030008334360012285
:1014000052428260C360036100230360704700237F
:101410000361704743684B609A688A609A685160BC
:1014200099600861036801330360704730B50C6848
:10143000631C02D00200083202E0026904E01A00D4
:1014400053681D68A542FAD953684B6099608A6059
:101450005160086103680133036030BD036942686D
:10146000816891608268416851605A68824206D002
:10147000002202611A68013A1A601868704782688F
:101480005A60F5E710B50400FFF75AFFA26BE36B53
:101490009A4204D00024FFF75FFF200010BD012412
:1014A000F9E710B50400FFF74BFFA36B002B04D046
:1014B0000024FFF751FF200010BD0124F9E770B5AB
:1014C00004001600856B026C002A0CD10368002B07
:1014D00003D000200135A56370BD406800F0C4FE54
:1014E00000236360F6E7002E0ED1806801F0C4FA95
:1014F000A368226C94466344A360626893421BD342
:101500002368A3600020E5E7C06801F0B5FA236C0A
:101510005A42E3689B18E36021688B4203D26368F8
:101520009C466244E260022E01D00020D2E7002DEA
:1015300004D0013D0020CDE70020CBE70020C9E723
:1015400010B50C00026C002A0BD0C3689B18C36056
:1015500041688B4201D30368C360C168200001F079
:101560008BFA10BD70B50500FFF7EAFE4523EC5C71
:1015700064B203E000F060FE013C64B2002C09DDBF
:101580006B6A002B06D02800243000F0D3FD002821
:10159000F2D0EFE74523FF22EA54FFF7DDFEFFF725
:1015A000CFFE4423EC5C64B203E000F045FE013C56
:1015B00064B2002C09DD2B69002B06D02800103006
:1015C00000F0B8FD0028F2D0EFE74423FF22EA54F0
:1015D000FFF7C2FE70BD70B504000D00002801D1F8
:1015E00072B6FEE7FFF7ACFE2268E36B206C0100E9
:1015F0005943511861600021A163A260013B43433C
:10160000D318E360FF234422A3540132A354002DD6
:101610000FD12369002B03D1FFF79EFE012070BD7F
:101620002000103000F086FD0028F5D0FFF77CFE8A
:10163000F2E720001030FFF7DFFE20002430FFF734
:10164000DBFEE9E770B51D00049C002909D022608B
:10165000E063216401212000FFF7BDFF4C23E55426
:1016600070BD2460F4E770B584B01C0008AB1B7833
:10167000002801D172B6FEE7002C05D0002A05D063
:10168000002903D172B6FEE772B6FEE7002A03D145
:10169000002901D072B6FEE750250395039D502D19
:1016A00001D072B6FEE74625012666550094FFF785
:1016B000C9FF200004B070BDF0B585B004000F0074
:1016C00001921D00002806D0002906D1036C002BD2
:1016D00003D072B6FEE772B6FEE7022D04D1E36BCB
:1016E000012B01D072B6FEE700F0ACFD002804D15A
:1016F000019B002B03D072B6FEE7002631E00026E6
:101700002FE02A0039002000FFF7D9FE636A002B82
:1017100004D100280AD0FFF707FE07E0200024309C
:1017200000F008FD002801D0FFF7FEFDFFF714FED2
:10173000012005B0F0BDFFF70FFE0020F9E702A879
:1017400000F03AFD013619E044230022E25420E083
:1017500045230022E25421E02000FFF703FF00F0C0
:10176000EDFBFFF7EDFDA36BE26B9342C9D3022DB6
:10177000C7D0019B002BDED0002EE0D0FFF7ECFDA0
:1017800000F044FBFFF7DCFD4423E35C5BB2013374
:10179000DAD04523E35C5BB20133D9D0FFF7DCFD3F
:1017A00001A902A800F014FD002813D12000FFF7C2
:1017B00069FE0028D0D020001030019900F090FC84
:1017C0002000FFF7CFFE00F0B9FB0028C9D1FFF7DA
:1017D000ABFDC6E72000FFF7C5FE00F0AFFB002021
:1017E000A7E7F0B583B00400009115001F000028A2
:1017F00007D0009B002B06D1036C002B03D072B6E0
:10180000FEE772B6FEE7022F04D1E36B012B01D095
:1018100072B6FEE7FFF7B0FD0190A36BE26B934257
:1018200003D3022F01D000240EE04523E65C76B2FC
:101830003A0000992000FFF742FE731C0AD00136DF
:1018400076B24523E65401240198FFF799FD200064
:1018500003B0F0BD636A002B0AD02000243000F0F2
:1018600069FC002806D0002D06D001242C60EBE78F
:101870000124E9E70124E7E70124E5E7F0B585B0B5
:1018800004000F000192002806D0002906D1036C45
:10189000002B03D072B6FEE772B6FEE700F0D2FC72
:1018A000002804D1019B002B03D072B6FEE700266E
:1018B00039E0002637E039002000FFF741FE013D06
:1018C000A5632369002B04D1FFF746FD012005B075
:1018D000F0BD2000103000F02DFC0028F4D0FFF700
:1018E00023FDF1E7FFF738FD0020F0E702A800F044
:1018F00063FC013621E044230022E25428E0452322
:101900000022E25429E02000FFF72CFE00F016FB35
:1019100009E02000FFF726FE00F010FB2000FFF793
:10192000C0FD002835D1FFF70BFDA56B002DC2D1FE
:10193000019B002BD6D0002ED8D0FFF70DFD00F074
:1019400065FAFFF7FDFC4423E35C5BB20133D2D0C0
:101950004523E35C5BB20133D1D0FFF7FDFC01A965
:1019600002A800F035FC0028D3D12000FFF799FD34
:101970000028C8D020002430019900F0B1FB2000DD
:10198000FFF7F0FD00F0DAFA0028CCD1FFF7CCFC2D
:10199000C9E700209BE7000010B50023072B0AD8F9
:1019A000DA00054C1259002A01D00133F6E7DB00BA
:1019B0001951E318586010BDBC19002070B504001F
:1019C0000D001600FFF7BCFC4423E35C5BB201335F
:1019D0000DD04523E35C5BB201330CD0FFF7BCFCB8
:1019E000A36B002B0BD02000FFF7BCFD70BD442380
:1019F0000022E254EDE745230022E254EEE7200006
:101A000024303200290000F07DFBECE7084B1B6816
:101A10001B68002B07D0064B1B68DB68DB685A6825
:101A2000044B1A607047034B012252421A60F9E7D7
:101A30002C000020D4040020F0B5C64600B582B0CA
:101A400000900F0015000193089C0A9E9200A521AA
:101A5000306BFEF709FC1E4BEB189B00326B944673
:101A6000634407229343984600230F2B09D8F918A3
:101A70000878F218343210700A78002A01D0013345
:101A8000F3E743230022F254372C00D93724F462C1
:101A9000F46400253565301DFFF7B9FC30001830BF
:101AA000FFF7B5FC366138231C1BB461766275659F
:101AB0002033F554019A00994046FFF705FC306049
:101AC000099B002B00D01E6002B004BC9046F0BD04
:101AD000FFFFFF3F70B5002407E0A3001B1998002B
:101AE0000E4BC018FFF788FC0134372CF5D90C4D8C
:101AF0002800FFF781FC0B4C2000FFF77DFC0A4813
:101B0000FFF77AFC0948FFF777FC0948FFF774FCF8
:101B1000084B1D60084B1C6070BDC046340000209F
:101B2000AC040020C0040020DC04002008050020D4
:101B3000F40400202C0000203000002010B5040028
:101B4000FFF7FEFB204A1368013313601F4B1B682D
:101B5000002B0CD01E4B1B68002B0DD11B4B1B68A0
:101B6000DB6AE26A934207D8184B1C6004E0174B0B
:101B70001C601368012B20D0164A136801331360D0
:101B80006364E26A144B1B689A4201D9124B1A60D3
:101B9000211D93009B189800104BC018FFF73AFCCA
:101BA000FFF7DAFB0A4B1B68002B05D0074B1B68BD
:101BB000DA6AE36A9A4203D310BDFFF78BFFDBE7D3
:101BC000FFF7B2FBF8E7C04694040020280000208D
:101BD000F0040020A4040020A80400203400002009
:101BE00010B504005923C35C002B06D1006B00F034
:101BF00023FE200000F020FE10BD012B03D0022B9D
:101C0000FAD072B6FEE700F017FEF5E710B514E063
:101C1000FFF796FB0B4BDB68DC68201DFFF71EFC13
:101C2000094A1368013B1360084A1368013B1360BB
:101C3000FFF792FB2000FFF7D3FF044B1B68002B3C
:101C4000E6D110BD0805002094040020980400206F
:101C500010B5FFF7DBFF034B1B68012BF9D9FFF72A
:101C600063FBF6E73400002070B504000D00174B4D
:101C70001E68174B18680430FFF7F0FB631C13D085
:101C80003419134B1B685C60A64216D8114B1868B8
:101C90000F4B19680431FFF7C9FB0F4B1B68A342B8
:101CA00012D90D4B1C600FE0002DE9D0084B1968CC
:101CB00004310A48FFF7AEFB06E0094B1868044BF5
:101CC00019680431FFF7B2FB70BDC0461C05002047
:101CD000280000202C000020D4040020F404002060
:101CE0003000002070B586B00B9D0C9C002D01D1FA
:101CF00072B6FEE7002C01D172B6FEE75C260496B0
:101D0000049E5C2E01D072B6FEE72563592502269B
:101D1000665500250395029405AD01950A9D009531
:101D2000FFF78AFE2000FFF709FF059806B070BD97
:101D3000F0B587B00490059114001F00900000F0EA
:101D40000FFD061E20D05C2000F00AFD051E17D0F6
:101D50000663002D1BD000235922AB540393029538
:101D60000D9B01930C9B00933B0022000599049866
:101D7000FFF762FE2800FFF7E1FE012007B0F0BD8B
:101D8000300000F059FDE4E701204042F6E7012071
:101D90004042F3E710B588B000240594069407AAE2
:101DA00006A905A800F050FE059B0293069B01932F
:101DB00000940023079A10491048FFF793FF00286A
:101DC00007D000F0F7FA012805D0431C11D008B065
:101DD00010BD0020F7E772B6094B012252421A608B
:101DE000084B02321A60084B00221A60FFF77EFA95
:101DF000EDE772B6FEE7C0460C2B0008511C000848
:101E0000D4040020F00400201C050020024A1368BE
:101E1000013313607047C046A0040020014B1868CE
:101E20007047C0461C050020F8B5394B1B68002BD5
:101E300061D1384B1D6801351D60002D12D1364B24
:101E40001B681B68002B01D072B6FEE7324A11688E
:101E5000324B186810601960314A136801331360FF
:101E6000FFF7D4FD2F4B1B68AB423AD900242E4B11
:101E70001B68DA6A93009B189A002C4BD358012BED
:101E80003ED901243CE00124234B1B681B68002B36
:101E900029D0214B1B68DB68DE6873689D4227D31D
:101EA000371D3800FFF7DAFAB36A002B03D0300091
:101EB0001830FFF7D3FAF26A1D4B1B689A4201D91A
:101EC0001B4B1A6093009B189800184BC0183900E0
:101ED000FFF7A0FAF26A144B1B68DB6A9A42D2D26F
:101EE000D2E70024D0E70F4B012252421A60BEE72E
:101EF0000C4A1360BBE70F4A1368013313600024D8
:101F00000D4B1B68002B00D001242000F8BDC046FB
:101F1000A00400201C0500202C0000203000002020
:101F2000D8040020D4040020280000203400002021
:101F3000A80400209C0400202005002070B5314B2F
:101F40001B68002B01D172B6FEE7FFF7F9F92D4BA4
:101F50001A68013A1A601B68002B4ED12A4B1B6885
:101F6000002B04D10024FFF7F7F9200070BD0024F6
:101F7000264B1B68002B23D0244BDB68DC68200039
:101F80001830FFF76BFA251D2800FFF767FAE26AA1
:101F90001F4B1B689A4201D91D4B1A6093009B1876
:101FA00098001C4BC0182900FFF734FA1A4B1B6825
:101FB000DB6AE26A9A42DBD3184B01221A60D7E748
:101FC000002C01D0FFF722FD154B1C68002C0CD013
:101FD000FFF72AFF002802D0104B01221A60013CB3
:101FE000002CF5D10E4B00221A600C4B1B68002B05
:101FF00005D0FFF799F90124B5E70024B3E70024E1
:10200000B1E7C046A004002094040020DC040020B6
:10201000A804002034000020280000202005002013
:102020009C04002010B5041E0FD0094B1B68002B28
:1020300001D072B6FEE7FFF7E9FE00212000FFF7AE
:1020400013FEFFF77BFF002801D1FFF76DF910BDEC
:10205000A004002030B51D4B1B68002B03D01C4B87
:1020600001221A6030BD1A4B00221A60194B1B68FE
:102070009A00D2189100184A8A58002A05D1002BDC
:1020800001D0013BF4E772B6FEE7134D9900CA1880
:1020900090002818426854684460C9188A000832C1
:1020A000521994420BD09A00D21891000A4A521841
:1020B0005268D168094A1160064A1360D2E7606825
:1020C000142159436A185060EDE7C046A00400206F
:1020D00020050020A8040020340000202800002053
:1020E00010B50C00002801D172B6FEE7044B196848
:1020F0001831FFF79BF901212000FFF7B5FD10BD56
:102100002800002070B50C001500002801D172B61F
:10211000FEE7074B19681831FFF77CF9002D01D055
:102120000124644229002000FFF79EFD70BDC046D7
:102130002800002070B5C368DC68002C01D172B69D
:10214000FEE7250018352800FFF788F9144B1B68B7
:10215000002B1DD1251D2800FFF780F9E26A114BE5
:102160001B689A4201D90F4B1A6093009B18980084
:102170000D4BC0182900FFF74DF9E26A0B4B1B68A5
:10218000DB6A9A4209D90A4B01221A60012070BD0C
:1021900029000848FFF73EF9EFE70020F7E7C046BF
:1021A000A0040020A8040020340000202800002003
:1021B00020050020DC040020034B1B680360034B58
:1021C0001B6843607047C046D80400201C050020EF
:1021D000F8B505000C00002803D0002903D172B621
:1021E000FEE772B6FEE7FFF7ABF8114B19686868B7
:1021F0000A1A23685E1C16D00E4E36682F68B74246
:1022000001D0884211D9934203D8002323600124CE
:1022100005E09B1A23602800FFF7CEFF0024FFF79C
:102220009BF82000F8BD0024F9E70124F7E7C04639
:102230001C050020D8040020014B01221A607047C1
:1022400020050020064B1B68002B07D0054B1B68A0
:10225000002B01D0002002E0022000E001207047A6
:10226000F0040020A004002070B5041E2AD0184BF2
:102270001B68834201D072B6FEE7036D002B01D1CB
:1022800072B6FEE7013B0365C26AC16C8A421BD08D
:10229000002B1BD1051D2800FFF7E0F8E36CE3627B
:1022A0003822D21AA2610B4A1268934201D9094A14
:1022B000136014205843084BC0182900FFF7AAF8F0
:1022C000012000E0002070BD0020FCE70020FAE7BC
:1022D00028000020A804002034000020064B1A68C3
:1022E000136859424B410360002B02D1D368186830
:1022F00070470020FCE7C0462405002010B541606F
:10230000006191420CD8D21A83699A4201D301200C
:1023100010E0011D094B1868FFF788F8002009E05C
:102320009A4201D2994206D2011D054B1868FFF767
:102330007DF8002010BD0120FCE7C04628050020E4
:102340002405002030B583B0FEF7FAFF114B1B685F
:10235000002B03D0FFF700F803B030BD0E4D28006E
:10236000FFF74AF80D4C2000FFF746F80C4B1D60B4
:102370000C4B1C60002300930B4B0C4A10210A20CD
:10238000FFF771F9034B18600028E3D00849FFF705
:1023900003FBDFE748060020CC050020E005002015
:1023A0002405002028050020F80500202C05002029
:1023B0003C2B000800B589B0FFF7C4FF104B1B6829
:1023C000002B1AD000230593069307AA06A905A897
:1023D00000F046FB059B0293069B019302230093AA
:1023E0000023079A07490848FFF77CFC074B186051
:1023F000002802D0012009B000BD72B6FEE7C04639
:1024000048060020442B0008912600084C060020B6
:1024100030B585B004001D00002815D0134B186896
:10242000002821D0009101920294052916DCFFF7C3
:1024300009FF02280AD00D4B1868002300226946C4
:10244000FFF73AF905B030BD72B6FEE7074B1868E2
:102450000023089A6946FFF72FF9F3E700232A00C3
:102460006946FFF7BEF9EDE70020EBE748060020DC
:1024700070B582B0174B1B681A68002A23D0DB683E
:102480001E68DC68251D2800FEF7E8FF2000636A4F
:102490009847E369012BEDD1A3699B199E4207D2AE
:1024A000636024610B4B18682900FEF7BFFFE1E76A
:1024B00000230093320000212000FFF7A9FF00282D
:1024C000D8D172B6FEE7044A02491068086013606A
:1024D00002B070BD240500202805002070B505005D
:1024E000FFF79CFC0400074B1B68834205D80023C0
:1024F0002B60044B1C60200070BDFFF7B9FF012367
:102500002B60F6E7F405002070B582B005000E00E0
:10251000114B1B68DB68DC68201DFEF79FFFE36939
:10252000012B04D0636A2000984702B070BDA369F4
:1025300059192B0032002000FFF7E0FE0028F1D0EF
:10254000002300932A0000212000FFF761FF0028EC
:10255000E8D172B6FEE7C0462405002070B582B00F
:1025600005000C00FFF752FC01A8FFF7B7FF0600BB
:10257000019B002B21D1002C01D1A84213D2002CA9
:1025800005D00F4B1B681C6863425C41E4B2A91B79
:102590000C4B18682200FFF711FAFFF7CFFC002858
:1025A00008D002B070BDFFF7C9FC31002800FFF76A
:1025B000ABFFF6E7FEF7B8FEF3E7FFF7BFFCF0E787
:1025C000280500204806002010B588B002E0049BD2
:1025D000002B0FDA2C4B1868002204A9FFF74EF9E4
:1025E00000284ED0049B002BF1DA059B0799069832
:1025F0009847ECE7069C6369002B02D0201DFEF78C
:102600002DFF03A8FFF76AFF049B092BE2D89B006C
:102610001E49CB589F46059BA26994466344190006
:10262000059B02002000FFF769FE0028D2D02000A1
:10263000636A9847E369012BCCD1059BA1698C465D
:1026400063441A000023009300212000FFF7E0FEFE
:102650000028BFD172B6FEE70599A161002906D016
:102660000918030002002000FFF748FEB2E772B627
:10267000FEE72C23E35C002BACD1200000F0DCF85B
:10268000A8E708B010BDC04648060020142B00087B
:1026900000B583B001A8FFF721FE0199FFF75EFFA7
:1026A000FFF792FFF6E70000124A53071FD0D11D33
:1026B00007239943C0231B015B1A9B180A000E488D
:1026C000026000214160D318083B072083430B4878
:1026D000036059601960991A51601360084B1960C2
:1026E000084B1960084B802212061A607047C023FD
:1026F0001B01E4E754060020601200205006002071
:102700005C120020581200205412002010B5124B09
:102710001A68824219D359685C18844203D1406810
:1027200009185960180041684418A24211D10B4C95
:102730002468A2420BD05268891841601A68126856
:102740000260984200D0186010BD1300E0E70460FA
:10275000F7E70260F5E7C04660120020500600204F
:1027600070B50400FFF752FB2E4B1B68002B0FD0F7
:102770002D4B1B6823424BD1002C0CD0083463072F
:1027800009D007239C430834234204D072B6FEE7E5
:10279000FFF78AFFECE7002C3CD0244B1B68A342D8
:1027A0003AD3234B1D6801E02B0015006A68A24252
:1027B00002D22A68002AF7D11A4A1268AA422DD0FA
:1027C0001E6808362A681A606B681B1B102B08D914
:1027D0002819420701D072B6FEE743606C60FFF72C
:1027E00095FF6A6811490B689B1A0B6011490968CB
:1027F0008B4201D20F490B600B4B1B6813436B607C
:1028000000232B60FFF79AFB730709D072B6FEE72F
:102810000026F7E70026F5E70026F3E70026F1E7B4
:10282000300070BD500600205412002058120020C5
:10283000601200205C12002070B5002820D0050036
:10284000083D6B680F4A12681A4201D172B6FEE762
:10285000010008390968002901D072B6FEE708387E
:10286000040093434360FFF7D1FA6368064A116896
:102870008C46634413602800FFF748FFFFF75EFBB8
:1028800070BDC0465412002058120020EFF305839B
:10289000002B10D1EFF31083002B03D00A4B1B68E1
:1028A000022B0BD0084B1B68002B0AD1064B0122D0
:1028B0001A600020704706204042FBE70620404295
:1028C000F8E701204042F5E7C414002010B5EFF30B
:1028D0000583002B12D1EFF31083002B03D00C4B98
:1028E0001B68022B0DD00A4B1B68012B0CD1084B27
:1028F00002221A60FFF74EFA002010BD0620404267
:10290000FBE706204042F8E701204042F5E7C046D9
:10291000C4140020F0B587B000240494EFF30584BC
:10292000002C34D1EFF31083002B03D0364B1B68FF
:10293000022B2CD000282AD017236B4400241C70B3
:10294000002A35D01568002D24D09369002B00D1C2
:1029500018335C1E372C53D85468E40752D4576997
:10296000002F19D0BC08A4469468002C07D0D66864
:102970005B2E04D91669002E01D0002F1FD1002C28
:102980000DD001246442012C20D0002C2AD00498C0
:1029900007B0F0BD1D00D8E78024A446E4E7D46862
:1029A000002C0ED11469002C0ED001246442EAE7F9
:1029B000002418238025AC46693D6D44E3E70124DB
:1029C000E1E701246442DEE70024DCE714690194B6
:1029D0009268029200930B0062462900FFF782F989
:1029E0000490D4E7624692B204AC019400930B00C9
:1029F0002900FFF79DF90128C9D000230493C6E7F9
:102A00000020C5E70020C3E7C414002010B5EFF391
:102A10000583002B0FD1EFF31083002B03D0094B5C
:102A20001B68022B0AD0002801D1002010BDFFF73F
:102A3000F9FA0020FAE706204042F7E70620404274
:102A4000F4E7C046C4140020034B0360034B0B6043
:102A5000802313607047C04668140020681200206D
:102A6000034B0360034B0B6080235B0013607047D4
:102A7000C8180020C8140020002310B59A4200D1C5
:102A800010BDCC5CC4540133F8E70000F8B5C04673
:102A9000F8BC08BC9E467047F8B5C046F8BC08BCF8
:042AA0009E46704797
:102AA40002030405060708090A0B0C0D0E0F10108B
:102AB4000102030405060708090A0B0C0D0E0F108A
:102AC400E82A0008000000000000000000000000E8
:102AD40000000000000200001800000000000000D8
:102AE4000000000064656661756C745461736B006A
:102AF40000000000000000000102030406070809AA
:102B0400000000000102030449444C450000000099
:102B1400162600081626000816260008D4250008E4
:102B240058260008722600081626000816260008F3
:102B3400D425000858260008546D72510000000086
:082B4400546D7220537663000A
:042B4C00E900000894
:042B5000C1000008B8
:0C2B54000100000000127A00AAAAAAAA40
:040000050800027974
:00000001FF
