:020000040800F2
:1000000000800020E9120008DD020008DF0200087D
:1000100000000000000000000000000000000000E0
:100020000000000000000000000000006D12000849
:10003000000000000000000081120008C512000846
:100040003913000839130008391300083913000860
:100050003913000839130008391300083913000850
:100060003913000839130008391300083913000840
:10007000391300083913000839130008E102000899
:100080003913000839130008391300083913000820
:100090003913000839130008391300083913000810
:1000A0003913000839130008391300083913000800
:0C00B00039130008391300083913000848
:1000C00010B5064C2378002B07D1054B002B02D02E
:1000D000044800E000BF0123237010BD0800002089
:1000E0000000000084130008044B10B5002B03D05F
:1000F0000349044800E000BF10BDC04600000000F6
:100100000C00002084130008002243088B4274D3A3
:1001100003098B425FD3030A8B4244D3030B8B4208
:1001200028D3030C8B420DD3FF22090212BA030C11
:100130008B4202D31212090265D0030B8B4219D3F2
:1001400000E0090AC30B8B4201D3CB03C01A524112
:10015000830B8B4201D38B03C01A5241430B8B425A
:1001600001D34B03C01A5241030B8B4201D30B0343
:10017000C01A5241C30A8B4201D3CB02C01A52416A
:10018000830A8B4201D38B02C01A5241430A8B422D
:1001900001D34B02C01A5241030A8B4201D30B0216
:1001A000C01A5241CDD2C3098B4201D3CB01C01A30
:1001B000524183098B4201D38B01C01A524143093A
:1001C0008B4201D34B01C01A524103098B4201D328
:1001D0000B01C01A5241C3088B4201D3CB00C01A95
:1001E000524183088B4201D38B00C01A524143080D
:1001F0008B4201D34B00C01A5241411A00D2014632
:10020000524110467047FFE701B5002000F006F8A4
:1002100002BDC0460029F7D076E770477047C04658
:10022000FEE700B593B0202301931F3B0993022200
:100230000A92C02252020B920D9300230C9301A844
:1002400000F0AEF800280ED107230E93053B0F9364
:1002500000231093119301210EA800F08BFB0028BE
:1002600003D113B000BDFFF7DBFFFFF7D9FF00009C
:1002700030B583B000F050FCFFF7D3FF154A516949
:100280008020800201435161536903400193019B27
:10029000114901234B608B600233CB601D330B602F
:1002A0009020C00500F060FC9025ED050022202183
:1002B000280000F025FDFA24A400200000F042FCF4
:1002C00001222021280000F01BFD200000F03AFC54
:1002D000EAE7C0460010024024000020FEE7FEE7E7
:1002E00010B5024800F08DFD10BDC046C0040020CE
:1002F00000B583B00C4B996901221143996199694A
:100300000A400092009ADA69802149050A43DA61BD
:10031000DB690B400193019B022000220321404234
:1003200000F0F4FC03B000BD0010024000B587B03F
:10033000010000220F2000F0E9FC0F2000F018FD62
:10034000134AD16901231943D161D2691340009343
:10035000009B01A902A800F0C3FB00F0B1FB0D490E
:10036000FFF7D2FE431E0C488022D20502600B4AE2
:10037000C260436000230361836000F041FE0028F7
:1003800002D0012007B000BD034800F0FFFCF9E7F0
:100390000010024040420F00C0040020E7030000AC
:1003A00070B582B0041E00D185E20368DB072BD54F
:1003B000B34B5A680C231340042B1DD0B04B5A6822
:1003C0000C231340082B0ED06368012B41D0002B67
:1003D00056D1AB4B1A68AB490A401A601A68AA4951
:1003E0000A401A603BE0A64B5B68C02252021340F1
:1003F000802252029342E7D1A14B1B689B0303D595
:100400006368002B00D159E223689B0778D59C4B89
:100410005B680C221A4262D0994B5A680C23134035
:10042000082B53D0E368002B00D18BE0944A13686B
:1004300001210B43136000F07FFB0500904B1B680C
:100440009B0776D400F078FB401B0228F6D90320E6
:1004500032E28B4A116880235B020B4313606368AE
:10046000002B25D000F068FB0500854B1B689B0323
:10047000CAD400F061FB401B6428F6D903201BE2BC
:10048000052B09D07E4B1A687E490A401A601A680B
:100490007D490A401A60E2E7794B19688022D2024E
:1004A0000A431A601968802252020A431A60D6E78A
:1004B00000F042FB0500724B1B689B03A4D500F0C3
:1004C0003BFB401B6428F6D90320F5E16C4B5B68CD
:1004D000C02252021340802212029342A2D1684BE2
:1004E0001B689B0704D5E368012B01D00120E3E1E1
:1004F00063490B68F82293432269D20013430B60CF
:1005000023681B0744D5E369002B2ED05C4A536A4D
:1005100001210B43536200F00FFB0500584B5B6A4F
:100520009B0735D400F008FB401B0228F6D90320B6
:10053000C2E153490B68F82293432269D200134366
:100540000B60DDE74E4A136801218B43136000F016
:10055000F3FA05004A4B1B689B07D1D500F0ECFA73
:10056000401B0228F6D90320A6E1454A536A01211F
:100570008B43536200F0E0FA0500414B5B6A9B0736
:1005800006D500F0D9FA401B0228F6D9032093E1E2
:1005900023685B0700D47FE0394BDB69DB001DD4A7
:1005A000374AD169802040050143D161D3690340B6
:1005B0000193019B0125354B1B68DB0510D5A36812
:1005C000012B21D0002B36D12D4B1A6A01218A43F1
:1005D0001A621A6A03318A431A621AE00025EAE7AE
:1005E0002A4A116880235B000B43136000F0A4FAD1
:1005F0000600264B1B68DB05E1D400F09DFA801B4A
:100600006428F6D9032057E11D4A136A01210B43E0
:100610001362A368002B24D000F08EFA0600184B5A
:100620001B6A9B0736D400F087FA801B184B984250
:10063000F5D9032040E1052B09D0114B1A6A01219D
:100640008A431A621A6A03318A431A62E1E70C4B41
:100650001A6A04210A431A621A6A03390A431A629F
:10066000D7E700F069FA0600054B1B6A9B0711D516
:1006700000F062FA801B064B9842F5D903201BE17B
:1006800000100240FFFFFEFFFFFFFBFF0070004075
:1006900088130000012D3AD02368DB0610D563696A
:1006A000012B3AD0053358D1884A536B04218B4330
:1006B0005363536BF4318B43A169C9000B435363FC
:1006C00023689B0600D482E0804B5A680C231340B9
:1006D0000C2B60D07D4B5A680C231340082B53D051
:1006E000236A002B60D0794A516B80235B020B4355
:1006F000536300F021FA0500744B5B6BDB0366D497
:1007000000F01AFA401B0228F6D90320D4E06F4A01
:10071000D3696F490B40D361BEE76C4B5A6B042120
:100720000A435A635A6B03390A435A6300F004FAC6
:100730000500664B5B6B9B0706D400F0FDF9401B80
:100740000228F6D90320B7E060494B6BF8229343A7
:10075000A269D20013434B63B2E75C4B5A6B04218E
:100760000A435A635A6B03398A435A6300F0E4F927
:100770000500564B5B6B9B07A2D500F0DDF9401BD3
:100780000228F6D9032097E0504B5B68C022520242
:1007900013409342A4D14D4B5B6BDB0317D5236A07
:1007A000012B14D0012087E0484A536B49490B4084
:1007B000536300F0C1F90500444B5B6BDB0306D5C6
:1007C00000F0BAF9401B0228F6D9032074E0636AEE
:1007D000002B00D174E03D4A51680C220A40082ADF
:1007E0004DD0022B12D0394A13683B490B4013609D
:1007F00000F0A2F90400354B1B689B013DD500F0C9
:100800009BF9001B0228F6D9032055E02F4A1368F4
:1008100031490B40136000F08FF905002B4B1B682A
:100820009B0106D500F088F9401B0228F6D9032069
:1008300042E0264BDA6A0F218A43216B0A43DA62CF
:100840005A6826490A40E16AA06A01430A435A608D
:100850001968802252040A431A6000F06DF90400FE
:100860001A4B1B689B0106D400F066F9001B022896
:10087000F6D9032020E000201EE000201CE0012B20
:1008800020D0124B5A68D96AC0235B021340A06A79
:10089000834201D001200FE00F230B40216B8B42DC
:1008A00001D0012008E0F0239B031A40E36A9A423A
:1008B0000AD0012000E0012002B070BD0120FBE75A
:1008C0000020F9E70120F7E70020F5E700100240DB
:1008D000FFFFFFEFFFFFFEFFFFFFFFFEFF7FC2FFF7
:1008E00030B589B004AA1F4B180032C832C21100BB
:1008F00002680A606A46103313CB13C21B68136088
:10090000194B5A680C231340082B04D00C2B26D00B
:10091000164809B030BD910C0F23194004A8445C5F
:100920001149C96A0B406946C95CC0235B021A4081
:1009300080235B029A4208D0C0235B029A4209D00E
:100940000A48FFF7E1FB6043E3E70848FFF7DCFBF9
:100950006043DEE70648FFF7D7FB6043D9E704486A
:10096000D7E7C0469C1300080010024000127A002E
:10097000006CDC0270B504000D00002800D189E095
:10098000464B1A68012313408B420BD243490B6834
:10099000012293432B430B600B681A40AA4201D0FB
:1009A000012078E023689A070ED55B0705D53C4AFD
:1009B0005168E023DB000B435360394A5368F02150
:1009C0008B43A1680B4353602368DB0735D563680D
:1009D000012B09D0022B24D0032B28D0304A1268D7
:1009E000920705D4012056E02D4A1268920353D590
:1009F0002B494A680320824313434B6000F09CF864
:100A00000600274B5B680C221A4063689B009A42E1
:100A100013D000F091F8801B224B9842F1D90320AB
:100A200039E01F4A12689201E2D4012033E01C4AE7
:100A3000526BD203DCD401202DE0184B1A6801233D
:100A40001340AB420BD915490B68012293432B434A
:100A50000B600B681A40AA4201D001201BE02368FA
:100A60005B0706D50E4A53680F490B40E1680B43FC
:100A70005360FFF735FF0A4B5A6812090F231340E2
:100A80000A4AD35CD8400A4B18600020FFF74EFC9E
:100A9000002000E0012070BD0120FCE700200240A2
:100AA0000010024088130000FFF8FFFFBC1300088D
:100AB00004000020014B18687047C0460400002065
:100AC00010B5FFF7F7FF044B5A68120A07231340CB
:100AD000024AD35CD84010BD00100240CC1300087D
:100AE00010B5072303600A4B5C6803222240426072
:100AF0005C68F022224082605B68E022D2001340F2
:100B0000C360044B1A68012313400B6010BDC0463C
:100B1000001002400020024010B5064A1368102160
:100B20000B4313600020FFF701FCFFF7E1FB0020FF
:100B300010BDC04600200240014B18687047C046F7
:100B40000805002070B50400FFF7F6FF0500631CE0
:100B500002D0044B1B78E418FFF7EEFF401BA042C5
:100B6000FAD370BD00000020F0B5CE46474680B5F0
:100B700083B0002333E0042600E00026AE403500B9
:100B80003D430234A400574EA551574C2568D44329
:100B90002E0026404F68FF0301D515432E00524D0D
:100BA0002E606D682E0026404F68BF0301D51543A7
:100BB0002E004D4D6E60AD682E0026404F68FF023E
:100BC00001D515432E00484DAE60ED682C404E68AF
:100BD000B60201D52A431400434AD46001330A689F
:100BE0001400DC4079D001249C402240F6D04D68AE
:100BF0006E1E012E03D9112D01D0122D12D1856840
:100C00005F000326BE40B5432E00CD68BD4035438E
:100C100085604568A5434C682609012434409C4002
:100C20002C434460C7685E000324B440E443A446F8
:100C300027408D68B5403D43C5604C68022C01D00B
:100C4000122C10D1DC080834A400A146275807252F
:100C50001D40AD000F24AC40A7430C69AC402500FB
:100C60003D434C46255005686446254003244F68A3
:100C70003C40B4402C4304604C68E400AED51B4DAE
:100C8000AE6901242643AE61AD692C400194019CFC
:100C90009C08A51CAD00134EAF5903261E40B5009D
:100CA0000F26AE40B7439026F605B04200D164E768
:100CB0000F4EB0420BD00F4EB0420AD00E4EB04293
:100CC00009D00E4EB04200D155E7052656E7012661
:100CD00054E7022652E7032650E703B00CBC9046C7
:100CE0009946F0BD000001400004014000100240A0
:100CF0000004004800080048000C004800100048AC
:100D0000002A01D1816270478161FCE770B500283B
:100D100011DB8308144DC0339B005C590322104043
:100D2000C000FC3216008640B44389010A4082406C
:100D300022435A5170BDC0B20F230340083B9B08A9
:100D400006339B00094A944663445D6803242040AF
:100D5000C000FF2214008440A54389011140814056
:100D600029435960E6E7C04600E100E000ED00E0FD
:100D7000002805DB1F2318401E3B8340014A1360F7
:100D80007047C04600E100E0704700003D23C35CAF
:100D9000012B01D0012070473C330222C25402686B
:100DA000D36801210B43D3600368104A93420FD0EC
:100DB0008022D20593420BD00D4A934208D00D4AAF
:100DC000934205D01A6801210A431A600020E2E725
:100DD000996807220A40062A05D01A6801210A43A9
:100DE0001A600020D7E70020D5E7C046002C01405C
:100DF0000004004000400140704770477047704752
:100E0000704710B5040003681A6992070FD5DA68B5
:100E100092070CD5032252421A610123037703681B
:100E20009B699B0763D0FFF7E9FF002323772368C3
:100E30001A69520712D5DA6852070FD505225242B5
:100E40001A610223237723689A69C0239B001A4200
:100E500053D02000FFF7D2FF0023237723681A69BD
:100E6000120710D5DA6812070DD5092252421A610D
:100E7000042323772368DB699B0745D02000FFF715
:100E8000BDFF0023237723681A69D20612D5DA68DA
:100E9000D2060FD5112252421A6108232377236804
:100EA000DA69C0239B001A4235D02000FFF7A6FF65
:100EB0000023237723681A69D20702D5DA68D2079C
:100EC00030D423681A69120602D5DA68120630D4C3
:100ED00023681A69520602D5DA68520630D42368AC
:100EE0001A69920602D5DA68920630D410BDFFF76F
:100EF00084FF2000FFF783FF97E72000FFF77DFFC7
:100F00002000FFF77CFFA7E72000FFF776FF200017
:100F1000FFF775FFB5E72000FFF76FFF2000FFF731
:100F20006EFFC5E7022252421A612000FFF764FFFC
:100F3000C7E7812252421A61200000F08EF8C7E70D
:100F4000412252421A612000FFF75AFFC7E72122CF
:100F500052421A61200000F07FF8C7E70368214A77
:100F6000904206D08022D205904202D01E4A904282
:100F700003D1702293434A6813431A4A904212D015
:100F80008022D20590420ED0174A90420BD0174AC9
:100F9000904208D0164A904205D0164A904202D09C
:100FA000154A904203D1154A1340CA681343802260
:100FB00093434A69134303608B68C3620B6883627F
:100FC000084B984208D00A4B984205D0094B9842EA
:100FD00002D0094B984201D10B690363012343619D
:100FE0007047C046002C0140000400400020004033
:100FF000004001400044014000480140FFFCFFFF69
:1010000070B5041E26D03D23C35C002B1CD03D25AB
:1010100002236355211D2068FFF7A0FF012346220C
:10102000A354083AA3540132A3540132A354013209
:10103000A3540132A3540132A3540132A354013208
:10104000A3546355002070BD3C330022C254FFF707
:101050009BFEDCE70120F6E7704770477047436866
:101060004B609A688A609A68516099600861036869
:101070000133036070470369426881689160826848
:10108000416851605A68824206D0002202611A68A3
:10109000013A1A601868704782685A60F5E70000E4
:1010A000084B1B681B68002B07D0064B1B68DB68CE
:1010B000DB685A68044B1A607047034B01225242A6
:1010C0001A60F9E73C000020B0040020F8B5394B65
:1010D0001B68002B61D1384B1D6801351D60002D48
:1010E00012D1364B1B681B68002B01D072B6FEE78D
:1010F000324A1168324B186810601960314A13681F
:1011000001331360FFF7CCFF2F4B1B68AB423AD97A
:1011100000242E4B1B68DA6A93009B189A002C4B14
:10112000D358012B3ED901243CE00124234B1B68FA
:101130001B68002B29D0214B1B68DB68DE687368B5
:101140009D4227D3371D3800FFF795FFB36A002B68
:1011500003D030001830FFF78EFFF26A1D4B1B687A
:101160009A4201D91B4B1A6093009B189800184BA8
:10117000C0183900FFF773FFF26A144B1B68DB6A73
:101180009A42D2D2D2E70024D0E70F4B012252423A
:101190001A60BEE70C4A1360BBE70F4A13680133BD
:1011A000136000240D4B1B68002B00D0012420008D
:1011B000F8BDC046A8040020B80400203C00002070
:1011C00040000020B4040020B004002038000020BB
:1011D00044000020AC040020A4040020BC04002033
:1011E00030B51D4B1B68002B03D01C4B01221A602D
:1011F00030BD1A4B00221A60194B1B689A00D21896
:101200009100184A8A58002A05D1002B01D0013BD1
:10121000F4E772B6FEE7134D9900CA18900028183B
:10122000426854684460C9188A00083252199442CE
:101230000BD09A00D21891000A4A52185268D1680D
:10124000094A1160064A1360D2E7606814215943C5
:101250006A185060EDE7C046A8040020BC040020D6
:10126000AC04002044000020380000207047EFF359
:10127000108072B6704780F310887047000000003D
:10128000EFF309800E4B1A6820381060F0C0444616
:101290004D4656465F46F0C008B572B6FFF7A0FF50
:1012A00062B60CBC116808681030F0C8A046A946A8
:1012B000B246BB4680F309882038F0C81847C046BC
:1012C0003800002010B5FFF7D2FF0400FFF7FEFE44
:1012D000002803D0034B802252051A602000FFF73C
:1012E000CAFF10BD04ED00E00D4885460D480E49CB
:1012F0000E4A002302E0D458C4500433C4188C4270
:10130000F9D30B4A0B4C002301E013600432A242D4
:10131000FBD3FFF7A3FE00F011F8FEF7A9FFFEE7ED
:10132000008000200000002008000020DC130008DE
:10133000080000200C050020FEE7000070B5002624
:101340000C4D0D4C641BA410A64209D1002600F0E0
:1013500019F80A4D0A4C641BA410A64205D170BDB1
:10136000B300EB5898470136EEE7B300EB589847C7
:101370000136F2E7D4130008D4130008D413000890
:10138000D8130008F8B5C046F8BC08BC9E467047A4
:0C139000F8B5C046F8BC08BC9E4670478B
:10139C0002030405060708090A0B0C0D0E0F1010AA
:1013AC000102030405060708090A0B0C0D0E0F10A9
:1013BC0000000000000000000102030406070809F9
:0813CC0000000000010203040F
:0413D400E900000824
:0413D800C100000848
:0813DC000100000000127A007C
:04000005080012E9F4
:00000001FF
